{
  "contractName": "Bank",
  "abi": [
    {
      "anonymous": false,
      "inputs": [
        {
          "indexed": false,
          "internalType": "uint256",
          "name": "id",
          "type": "uint256"
        },
        {
          "indexed": false,
          "internalType": "address",
          "name": "payer",
          "type": "address"
        },
        {
          "indexed": false,
          "internalType": "address",
          "name": "payee",
          "type": "address"
        },
        {
          "indexed": false,
          "internalType": "uint256",
          "name": "amount",
          "type": "uint256"
        },
        {
          "indexed": false,
          "internalType": "uint256",
          "name": "createdAt",
          "type": "uint256"
        }
      ],
      "name": "TransactionCreated",
      "type": "event"
    },
    {
      "inputs": [],
      "name": "transactionCount",
      "outputs": [
        {
          "internalType": "uint256",
          "name": "",
          "type": "uint256"
        }
      ],
      "stateMutability": "view",
      "type": "function"
    },
    {
      "inputs": [
        {
          "internalType": "uint256",
          "name": "",
          "type": "uint256"
        }
      ],
      "name": "transactions",
      "outputs": [
        {
          "internalType": "uint256",
          "name": "id",
          "type": "uint256"
        },
        {
          "internalType": "address",
          "name": "payer",
          "type": "address"
        },
        {
          "internalType": "address",
          "name": "payee",
          "type": "address"
        },
        {
          "internalType": "uint256",
          "name": "amount",
          "type": "uint256"
        },
        {
          "internalType": "uint256",
          "name": "createdAt",
          "type": "uint256"
        },
        {
          "internalType": "uint256",
          "name": "verifiedAt",
          "type": "uint256"
        }
      ],
      "stateMutability": "view",
      "type": "function"
    },
    {
      "inputs": [
        {
          "internalType": "address",
          "name": "",
          "type": "address"
        },
        {
          "internalType": "uint256",
          "name": "",
          "type": "uint256"
        }
      ],
      "name": "userTransactions",
      "outputs": [
        {
          "internalType": "uint256",
          "name": "",
          "type": "uint256"
        }
      ],
      "stateMutability": "view",
      "type": "function"
    },
    {
      "inputs": [
        {
          "internalType": "address",
          "name": "_payee",
          "type": "address"
        },
        {
          "internalType": "uint256",
          "name": "_amount",
          "type": "uint256"
        }
      ],
      "name": "createTransaction",
      "outputs": [],
      "stateMutability": "nonpayable",
      "type": "function"
    },
    {
      "inputs": [
        {
          "internalType": "address",
          "name": "_user",
          "type": "address"
        }
      ],
      "name": "getUserTransactions",
      "outputs": [
        {
          "internalType": "uint256[]",
          "name": "",
          "type": "uint256[]"
        }
      ],
      "stateMutability": "view",
      "type": "function"
    }
  ],
  "bytecode": "0x60806040525f8055348015610012575f80fd5b5061082d806100205f395ff3fe608060405234801561000f575f80fd5b5060043610610055575f3560e01c80631e7f8f0f146100595780639ace38c214610075578063b77bf600146100aa578063b842ec44146100c8578063ef925399146100f8575b5f80fd5b610073600480360381019061006e9190610531565b610128565b005b61008f600480360381019061008a919061056f565b610367565b6040516100a1969594939291906105b8565b60405180910390f35b6100b26103dd565b6040516100bf9190610617565b60405180910390f35b6100e260048036038101906100dd9190610531565b6103e2565b6040516100ef9190610617565b60405180910390f35b610112600480360381019061010d9190610630565b61040d565b60405161011f9190610712565b60405180910390f35b5f808154809291906101399061075f565b91905055506040518060c001604052805f5481526020013373ffffffffffffffffffffffffffffffffffffffff1681526020018373ffffffffffffffffffffffffffffffffffffffff1681526020018281526020014281526020015f81525060015f805481526020019081526020015f205f820151815f01556020820151816001015f6101000a81548173ffffffffffffffffffffffffffffffffffffffff021916908373ffffffffffffffffffffffffffffffffffffffff1602179055506040820151816002015f6101000a81548173ffffffffffffffffffffffffffffffffffffffff021916908373ffffffffffffffffffffffffffffffffffffffff160217905550606082015181600301556080820151816004015560a0820151816005015590505060025f3373ffffffffffffffffffffffffffffffffffffffff1673ffffffffffffffffffffffffffffffffffffffff1681526020019081526020015f205f54908060018154018082558091505060019003905f5260205f20015f909190919091505560025f8373ffffffffffffffffffffffffffffffffffffffff1673ffffffffffffffffffffffffffffffffffffffff1681526020019081526020015f205f54908060018154018082558091505060019003905f5260205f20015f90919091909150557f0d83ad1eaafb458f529ac87cb6f4531ec0ab2827c3fe8e6cf341d6e6a12b6b005f543384844260405161035b9594939291906107a6565b60405180910390a15050565b6001602052805f5260405f205f91509050805f015490806001015f9054906101000a900473ffffffffffffffffffffffffffffffffffffffff1690806002015f9054906101000a900473ffffffffffffffffffffffffffffffffffffffff16908060030154908060040154908060050154905086565b5f5481565b6002602052815f5260405f2081815481106103fb575f80fd5b905f5260205f20015f91509150505481565b606060025f8373ffffffffffffffffffffffffffffffffffffffff1673ffffffffffffffffffffffffffffffffffffffff1681526020019081526020015f2080548060200260200160405190810160405280929190818152602001828054801561049457602002820191905f5260205f20905b815481526020019060010190808311610480575b50505050509050919050565b5f80fd5b5f73ffffffffffffffffffffffffffffffffffffffff82169050919050565b5f6104cd826104a4565b9050919050565b6104dd816104c3565b81146104e7575f80fd5b50565b5f813590506104f8816104d4565b92915050565b5f819050919050565b610510816104fe565b811461051a575f80fd5b50565b5f8135905061052b81610507565b92915050565b5f8060408385031215610547576105466104a0565b5b5f610554858286016104ea565b92505060206105658582860161051d565b9150509250929050565b5f60208284031215610584576105836104a0565b5b5f6105918482850161051d565b91505092915050565b6105a3816104fe565b82525050565b6105b2816104c3565b82525050565b5f60c0820190506105cb5f83018961059a565b6105d860208301886105a9565b6105e560408301876105a9565b6105f2606083018661059a565b6105ff608083018561059a565b61060c60a083018461059a565b979650505050505050565b5f60208201905061062a5f83018461059a565b92915050565b5f60208284031215610645576106446104a0565b5b5f610652848285016104ea565b91505092915050565b5f81519050919050565b5f82825260208201905092915050565b5f819050602082019050919050565b61068d816104fe565b82525050565b5f61069e8383610684565b60208301905092915050565b5f602082019050919050565b5f6106c08261065b565b6106ca8185610665565b93506106d583610675565b805f5b838110156107055781516106ec8882610693565b97506106f7836106aa565b9250506001810190506106d8565b5085935050505092915050565b5f6020820190508181035f83015261072a81846106b6565b905092915050565b7f4e487b71000000000000000000000000000000000000000000000000000000005f52601160045260245ffd5b5f610769826104fe565b91507fffffffffffffffffffffffffffffffffffffffffffffffffffffffffffffffff820361079b5761079a610732565b5b600182019050919050565b5f60a0820190506107b95f83018861059a565b6107c660208301876105a9565b6107d360408301866105a9565b6107e0606083018561059a565b6107ed608083018461059a565b969550505050505056fea26469706673582212205c0d4510486fef997b78f4c3ffc782a4a5c06a82bd271e5ee509f7a3beb676d164736f6c63430008150033",
  "immutableReferences": {},
  "source": "// contracts/Bank.sol\r\npragma solidity ^0.8.0;\r\n\r\ncontract Bank {\r\n    struct Transaction {\r\n        uint id;\r\n        address payer;\r\n        address payee;\r\n        uint amount;\r\n        uint createdAt;\r\n        uint verifiedAt;\r\n    }\r\n\r\n    uint public transactionCount = 0;\r\n    mapping(uint => Transaction) public transactions;\r\n    mapping(address => uint[]) public userTransactions;\r\n\r\n    event TransactionCreated(uint id, address payer, address payee, uint amount, uint createdAt);\r\n\r\n    function createTransaction(address _payee, uint _amount) public {\r\n        transactionCount++;\r\n        transactions[transactionCount] = Transaction(transactionCount, msg.sender, _payee, _amount, block.timestamp, 0);\r\n        userTransactions[msg.sender].push(transactionCount);\r\n        userTransactions[_payee].push(transactionCount);\r\n        emit TransactionCreated(transactionCount, msg.sender, _payee, _amount, block.timestamp);\r\n    }\r\n\r\n    function getUserTransactions(address _user) public view returns (uint[] memory) {\r\n        return userTransactions[_user];\r\n    }\r\n}\r\n",
  "sourcePath": "D:\\Programao\\TypeScript\\tradewave\\contracts\\Bank.sol",
  "compiler": {
    "name": "solc",
    "version": "0.8.21+commit.d9974bed.Emscripten.clang"
  },
  "schemaVersion": "3.4.16",
  "updatedAt": "2024-07-15T01:14:25.235Z",
  "devdoc": {
    "kind": "dev",
    "methods": {},
    "version": 1
  },
  "userdoc": {
    "kind": "user",
    "methods": {},
    "version": 1
  }
}